:020000040802F0
:1000000000000320A90A0208D5080208DB0802083C
:10001000E1080208E7080208ED080208F90A0208E8
:10002000000000000000000000000000F3080208CB
:1000300001090208000000000F0902081D0902085A
:10004000F90A0208F90A0208F90A0208F90A02087C
:10005000F90A0208F90A0208F90A0208F90A02086C
:10006000F90A0208F90A0208F90A0208F90A02085C
:10007000F90A0208F90A0208F90A0208F90A02084C
:10008000F90A0208F90A0208F90A0208F90A02083C
:10009000F90A0208F90A0208F90A0208F90A02082C
:1000A000F90A0208F90A0208F90A0208F90A02081C
:1000B000F90A0208F90A0208F90A0208F90A02080C
:1000C000F90A0208F90A0208F90A0208F90A0208FC
:1000D000F90A0208F90A0208F90A0208F90A0208EC
:1000E000F90A0208F90A0208F90A0208F90A0208DC
:1000F000F90A0208F90A0208F90A0208F90A0208CC
:10010000F90A0208F90A0208F90A0208F90A0208BB
:10011000F90A0208F90A0208F90A0208F90A0208AB
:10012000F90A0208F90A0208F90A0208F90A02089B
:10013000F90A0208F90A0208F90A0208F90A02088B
:10014000F90A0208F90A0208F90A0208F90A02087B
:10015000F90A0208F90A0208F90A0208F90A02086B
:10016000F90A0208F90A0208F90A0208F90A02085B
:10017000F90A020800000000F90A02080000000065
:10018000F90A0208F90A0208F90A0208F90A02083B
:10019000F90A0208F90A0208F90A0208F90A02082B
:1001A000F90A0208F90A0208F90A0208F90A02081B
:1001B000F90A020800000000F90A0208F90A020818
:1001C000F90A020800000000F90A0208F90A020808
:1001D000F90A0208F90A0208F90A0208F90A0208EB
:1001E000F90A0208F90A0208F90A0208F90A0208DB
:0401F000000000000B
:1001F40010B5054C237833B9044B13B1044800E01F
:1002040000BF0123237010BD0C000020000000007B
:10021400743B020808B5034B1BB10349034800E0D3
:1002240000BF08BD0000000010000020743B02085D
:1002340053B94AB9002908BF00281CBF4FF0FF3149
:100244004FF0FF3000F082B9ADF1080C6DE904CE37
:1002540000F006F8DDF804E0DDE9022304B070479D
:100264002DE9F04F099D04460F46002B48D18A42E0
:10027400944661D9B2FA82F343B1C3F120019F409D
:1002840002FA03FC9C4020FA01F10F434FEA1C419F
:100294001FFA8CFE220CB7FBF1F601FB167706FB66
:1002A4000EF042EA0742904208D91CEB020206F122
:1002B400FF3702D2904200F237813E46121AA4B2AE
:1002C400B2FBF1F001FB102200FB0EFE44EA0244F3
:1002D400A64508D91CEB040400F1FF3202D2A6455E
:1002E40000F21C81104640EA0640A4EB0E040026EE
:1002F4001DB1DC400023C5E900433146BDE8F08F61
:100304008B4209D9002D00F0FD800026C5E90001CB
:1003140030463146BDE8F08FB3FA83F6002E4BD158
:100324008B42C0F0F280824240F2EF803046002DD2
:10033400E3D0C5E90047E0E702B9FFDEB2FA82F391
:10034400002B40F09D80891A4FEA124E97B2012685
:10035400200CB1FBFEF20EFB121140EA014107FB37
:1003640002F088420FD91CEB010102F1FF382CBFC7
:100374004FF001094FF00009884203D9B9F1000F89
:1003840000F0CF804246091AA4B2B1FBFEF00EFB86
:10039400101100FB07F744EA0144A74208D91CEBFB
:1003A400040400F1FF3102D2A74200F2B4800846EF
:1003B400E41B40EA02409BE7C6F12007B34001FA80
:1003C40006F422FA07FCF940B2404CEA030C20FA86
:1003D40007F34FEA1C491C431FFA8CFE00FA06F38C
:1003E400200CB1FBF9F809FB181140EA014108FBA4
:1003F4000EF088420FD91CEB010108F1FF3A2CBF23
:100404004FF0010B4FF0000B884203D9BBF1000FF2
:1004140000F08D80D046091AA4B2B1FBF9F009FBB3
:10042400101100FB0EFE44EA01418E4507D91CEB76
:10043400010100F1FF3401D28E457FD8204640EA05
:100444000840A1EB0E01A0FB029841454C46C6466C
:1004540002D306D14B4504D20138B9EB020468EB50
:100464000C0E002D70D01A1B61EB0E0122FA06F35C
:1004740001FA07F7F14000261F43C5E900713CE784
:1004840002FA03FCC3F1200001FA03F221FA00F698
:100494004FEA1C4E24FA00F11FFA8CF79C401143DA
:1004A400B6FBFEF00A0C0EFB106642EA064200FBA5
:1004B40007F696420ED91CEB020200F1FF382CBF5E
:1004C4004FF001094FF00009964202D9B9F1000F2B
:1004D40031D04046921B89B2B2FBFEF60EFB1622C7
:1004E40041EA024106FB07F28A4207D91CEB0101EB
:1004F40006F1FF3801D28A4223D84646891A46EAD1
:10050400004625E72E462846F7E6841A61EB0303E6
:1005140001201F460BE76444023849E7644402386B
:10052400E1E6023A61442EE7023E6244C6E6A8F1DF
:10053400020861446FE702386244CBE70238614441
:100544007DE7023E6144D9E72E46D6E6704700BFF8
:1005540080B400AFBFF34F8F00BF064BDB6803F4DA
:10056400E0620449044B1343CB60BFF34F8F00BFD9
:1005740000BFFDE700ED00E00400FA0580B500AF20
:1005840000F0B9FA00F018F800F0B4F800F066F8DA
:10059400074800F0D3F8074800F0F6F80346002BAC
:1005A400F9D1044B1B784A2BF5D1FFF7D1FF00BFDB
:1005B4008C3B0208BC00002080B598B000AF07F166
:1005C400180348220021184603F0CAFA3B1D0022F2
:1005D4001A605A609A60DA601A61002000F074FDB3
:1005E4000346002B01D000F0E9F81023BB6101237E
:1005F4007B630023BB636023FB6302237B640123CF
:10060400BB640123FB6437233B6507237B6502231B
:10061400BB650223FB6507F11803184600F0E4FDEF
:100624000346002B01D000F0C9F80F237B6003239D
:10063400BB600023FB6000233B6100237B613B1D07
:100644000521184601F0A6FA0346002B01D000F05C
:10065400B5F800BF6037BD4680BD000080B500AF6F
:10066400224B234A1A60214B4FF4E1325A601F4B4C
:1006740000229A601D4B0022DA601C4B00221A6192
:100684001A4B0C225A61194B00229A61174B002213
:100694001A62164B00225A62144B00229A62134BC0
:1006A40000225A66114802F06FFA0346002B01D06B
:1006B40000F084F800210D4803F064F90346002B90
:1006C40001D000F07BF80021084803F099F90346B3
:1006D400002B01D000F072F8044803F01AF9034625
:1006E400002B01D000F06AF800BF80BD2800002074
:1006F4000080004080B582B000AF0F4BDB6C0E4A27
:1007040043F08003D3640C4BDB6C03F080037B6009
:100714007B68094BDB6C084A43F04003D364064B07
:10072400DB6C03F040033B603B6800F029FD00BF35
:100734000837BD4680BD00BF0010024080B584B0BC
:1007440000AF7860FF23FB730023BB8102E0BB8909
:100754000133BB81BB897A6813441B78002BF6D123
:10076400BA894FF47A737968064802F05DFA034651
:10077400002B01D10023FB73FB7B18461037BD46C9
:1007840080BD00BF2800002080B584B000AF786031
:10079400FF23FB734FF47A7301227968064802F051
:1007A400D1FA0346002B01D10023FB73FB7B1846CF
:1007B4001037BD4680BD00BF2800002080B400AFC4
:1007C40072B600BFFEE7000080B483B000AF0F4BE9
:1007D4001B6E0E4A43F0010313660C4B1B6E03F0B1
:1007E40001037B607B68094B9B6D084A43F080538F
:1007F4009365064B9B6D03F080533B603B6800BFE1
:100804000C37BD465DF8047B704700BF0010024002
:1008140080B5AEB000AF786007F1A40300221A607F
:100824005A609A60DA601A6107F110039422002179
:10083400184603F095F97B681B68224A93423DD120
:1008440020233B610023BB6507F11003184601F028
:1008540085FC0346002B01D0FFF7B0FF1A4BDB6D7C
:10086400194A43F00103D365174BDB6D03F0010311
:10087400FB60FB68144BDB6C134A43F04003D36406
:10088400114BDB6C03F04003BB60BB6800F078FCE9
:100894004FF4C073C7F8A4300223C7F8A83000236C
:1008A400C7F8AC300023C7F8B0300823C7F8B43019
:1008B40007F1A4031946054800F078FA00BFB837D9
:1008C400BD4680BD00800040001002400018024276
:1008D40080B400AFFEE780B400AFFEE780B400AFA1
:1008E400FEE780B400AFFEE780B400AFFEE780B45B
:1008F40000AF00BFBD465DF8047B704780B400AF15
:1009040000BFBD465DF8047B704780B400AF00BFF4
:10091400BD465DF8047B704780B500AF00F042F936
:1009240000BF80BD80B400AF064BD3F88830054AC1
:1009340043F47003C2F8883000BFBD465DF8047B01
:10094400704700BF00ED00E080B487B000AF4F4BAC
:100954001B6803F00803002B07D14C4BD3F89430E9
:100964001B0A03F00F037B6105E0484B1B681B095E
:1009740003F00F037B61464A7B6952F823307B61A5
:10098400424B9B6803F00C030C2B66D801A252F86F
:1009940023F000BFCD0902085F0A02085F0A0208BB
:1009A4005F0A0208D50902085F0A02085F0A020802
:1009B4005F0A0208DD0902085F0A02085F0A0208EA
:1009C4005F0A0208E5090208324A7B69136048E0BD
:1009D400304B314A1A6044E02E4B304A1A6040E0F2
:1009E4002A4BDB6803F00303FB60284BDB681B091D
:1009F40003F00F030133BB60FB68022B03D0FB68D9
:100A0400032B06D00BE0244ABB68B2FBF3F33B6133
:100A14000BE0224ABB68B2FBF3F33B6105E07A6961
:100A2400BB68B2FBF3F33B6100BF184BDB681B0AE6
:100A340003F07F023B6902FB03F33B61134BDB686A
:100A44005B0E03F0030301335B007B603A697B6850
:100A5400B2FBF3F30F4A136003E00E4A7B691360A1
:100A640000BF0A4B9B681B0903F00F030C4AD35CBD
:100A74003B60084B1A683B6822FA03F3054A13608B
:100A840000BF1C37BD465DF8047B70470010024070
:100A9400C83B0208000000200024F40000127A0081
:100AA400B03B0208DFF834D0FFF73CFF002103E03D
:100AB4000B4B5B58435004310A480B4B42189A4283
:100AC400F6D30A4A02E0002342F8043B084B9A4258
:100AD400F9D303F021F8FFF751FDFEE700000320EE
:100AE400403C0208000000200C0000200C00002004
:100AF400C4000020FEE780B582B000AF0023FB7184
:100B0400042000F021F9FFF71FFF002000F00EF889
:100B14000346002B02D00123FB7101E0FFF754FED2
:100B2400FB7918460837BD4680BD000080B584B007
:100B340000AF78600023FB73174B1B78002B23D086
:100B4400164B1A68144B1B7819464FF47A73B3FB8F
:100B5400F1F3B2FBF3F3184600F01BF90346002B44
:100B64000FD17B68072B09D8002279684FF0FF303A
:100B740000F0F5F80A4A7B68136007E00123FB7371
:100B840004E00123FB7301E00123FB73FB7B1846A4
:100B94001037BD4680BD00BF0800002000000020C3
:100BA4000400002080B400AF064B1B781A46064BA5
:100BB4001B681344044A136000BFBD465DF8047B00
:100BC400704700BF08000020C000002080B400AFC0
:100BD400034B1B681846BD465DF8047B704700BF95
:100BE400C000002080B485B000AF78607B6803F05B
:100BF4000703FB600C4BDB68BB60BA684FF6FF036E
:100C04001340BB60FB681A02BB68134343F0BF6325
:100C140043F40033BB60044ABB68D36000BF14379D
:100C2400BD465DF8047B704700ED00E080B400AF82
:100C3400044BDB681B0A03F007031846BD465DF846
:100C4400047B704700ED00E080B483B000AF03463E
:100C54003960FB7197F90730002B0ADB3B68DAB285
:100C64000C4997F907305201D2B20B4483F80023A0
:100C74000AE03B68DAB20849FB7903F00F03043B4E
:100C84005201D2B20B441A7600BF0C37BD465DF850
:100C9400047B704700E100E000ED00E080B489B01F
:100CA40000AFF860B9607A60FB6803F00703FB618A
:100CB400FB69C3F10703032B28BF0323BB61FB6953
:100CC4000333062B02D9FB69043B00E000237B615C
:100CD4004FF0FF32BB6902FA03F3DA43BB681A40F0
:100CE4007B699A404FF0FF317B6901FA03F3D943E2
:100CF4007B680B40134318462437BD465DF8047BDC
:100D04007047000080B582B000AF78607B68013B1B
:100D1400B3F1807F01D301230FE00A4A7B68013BD2
:100D2400536007214FF0FF30FFF78EFF054B002281
:100D34009A60044B07221A60002318460837BD4600
:100D440080BD00BF10E000E080B582B000AF7860E5
:100D54007868FFF747FF00BF0837BD4680BD80B500
:100D640086B000AF0346B9607A60FB73FFF75EFF9D
:100D740078617A68B9687869FFF790FF024697F955
:100D84000F3011461846FFF75FFF00BF1837BD4606
:100D940080BD80B582B000AF78607868FFF7B2FF9D
:100DA400034618460837BD4680BD000080B487B0AE
:100DB40000AF7860396000237B6158E13B681A68B2
:100DC40001217B6901FA03F31340FB60FB68002BEC
:100DD40000F04A813B685B6803F00303012B05D0F4
:100DE4003B685B6803F00303022B30D17B689B688C
:100DF4003B617B695B00032202FA03F3DB433A693C
:100E040013403B613B68DA687B695B0002FA03F3D9
:100E14003A6913433B617B683A699A607B685B6813
:100E24003B6101227B6902FA03F3DB433A69134015
:100E34003B613B685B681B0903F001027B6902FAB2
:100E440003F33A6913433B617B683A695A603B6830
:100E54005B6803F00303032B17D07B68DB683B61FB
:100E64007B695B00032202FA03F3DB433A69134014
:100E74003B613B689A687B695B0002FA03F33A6959
:100E840013433B617B683A69DA603B685B6803F053
:100E94000303022B23D17B69DA087B68083253F8F9
:100EA40022303B617B6903F007039B000F2202FAA7
:100EB40003F3DB433A6913403B613B681A697B697E
:100EC40003F007039B0002FA03F33A6913433B61FF
:100ED4007B69DA087B680832396943F822107B6839
:100EE4001B683B617B695B00032202FA03F3DB436B
:100EF4003A6913403B613B685B6803F003027B691A
:100F04005B0002FA03F33A6913433B617B683A6975
:100F14001A603B685B6803F44033002B00F0A48044
:100F24005A4A7B699B08183352F823303B617B692A
:100F340003F00303DB000F2202FA03F3DB433A69F5
:100F440013403B617B68524A934225D07B68514AE7
:100F540093421FD07B68504A934219D07B684F4A12
:100F6400934213D07B684E4A93420DD07B684D4A1E
:100F7400934207D07B684C4A934201D106230CE08C
:100F840007230AE0052308E0042306E0032304E022
:100F9400022302E0012300E000237A6902F0030245
:100FA400D20093403A6913433B6138497B699B08FB
:100FB40018333A6941F82320344B1B683B61FB68C2
:100FC400DB433A6913403B613B685B6803F480137D
:100FD400002B03D03A69FB6813433B612B4A3B69FE
:100FE40013602A4B5B683B61FB68DB433A6913403F
:100FF4003B613B685B6803F40013002B03D03A6940
:10100400FB6813433B61214A3B6953601F4BD3F890
:1010140084303B61FB68DB433A6913403B613B68C6
:101024005B6803F40033002B03D03A69FB68134375
:101034003B61164A3B69C2F88430144BD3F88030C4
:101044003B61FB68DB433A6913403B613B685B6887
:1010540003F48033002B03D03A69FB6813433B61EC
:101064000A4A3B69C2F880307B6901337B613B6883
:101074001A687B6922FA03F3002B7FF49FAE00BF4A
:1010840000BF1C37BD465DF8047B704700F4024086
:10109400000002420004024200080242000C024224
:1010A40000100242001402420018024280B400AF51
:1010B400044B1B6803F4C0631846BD465DF8047B0B
:1010C400704700BF0070004080B584B000AF786006
:1010D400274B1B6803F4C063BB6000F061F8034650
:1010E400B3F5004F01D101233EE0214BDB6803F44B
:1010F4000043B3F5004F01D1012335E0BA687B68A2
:101104009A4201D100232FE0194B1B6823F4C062DB
:1011140017497B6813430B60164B1B685B09164A1F
:10112400A2FB0323DB09322202FB03F3134AA2FBD3
:101134000323DB080133FB6002E0FB68013BFB6037
:101144000B4B5B6903F48063B3F5806F02D1FB68DA
:10115400002BF2D1064B5B6903F48063B3F5806F17
:1011640001D1032300E0002318461037BD4680BD9B
:101174000070004000000020C55A7C0ACDCCCCCCC5
:1011840080B400AF054B5B68044A43F400735360BA
:1011940000BFBD465DF8047B704700BF007000408F
:1011A40080B483B000AF0F4B1B693B603B6803F412
:1011B4008053002B03D04FF480537B600AE03B68DC
:1011C40003F40043002B03D14FF400437B6001E0A0
:1011D40000237B607B6818460C37BD465DF8047BB2
:1011E400704700BF0070004080B588B000AF7860E1
:1011F4007B68002B02D1012300F0C2BC994B9B6891
:1012040003F00C03BB61974BDB6803F003037B61C2
:101214007B681B6803F01003002B00F0E980BB69B6
:10122400002B06D0BB690C2B40F083807B69012B1B
:101234007FD18C4B1B6803F00203002B06D07B6824
:10124400DB69002B02D1012300F09ABC7B685A6A47
:10125400844B1B6803F00803002B04D0814B1B68EC
:1012640003F0F00305E07F4BD3F894301B0903F03F
:10127400F003934224D27B685B6A184600F09CFE1C
:101284000346002B02D0012300F07ABC754B1B6887
:10129400744A43F008031360724B1B6823F0F00296
:1012A4007B685B6A6F4913430B606E4B5B6823F486
:1012B4007F427B681B6A1B026A4913434B6026E02A
:1012C400684B1B68674A43F008031360654B1B684F
:1012D40023F0F0027B685B6A624913430B60614B45
:1012E4005B6823F47F427B681B6A1B025D491343DE
:1012F4004B60BB69002B0AD17B685B6A184600F01F
:101304005BFE0346002B02D0012300F039BC00F041
:1013140017FE0346544A1360544B1B681846FFF7E4
:1013240005FC0346FB73FB7B002B60D0FB7B00F0CA
:1013340027BC7B68DB69002B39D04A4B1B68494AC0
:1013440043F001031360FFF741FC38610FE0FFF73E
:101354003DFC02463B69D31A022B08D9414B1B685A
:1013640003F00203002B02D1032300F009BC3D4B20
:101374001B6803F00203002BE9D03A4B1B68394A7F
:1013840043F008031360374B1B6823F0F0027B68BB
:101394005B6A344913430B60324B5B6823F47F422E
:1013A4007B681B6A1B022F4913434B6020E02D4BC3
:1013B4001B682C4A23F001031360FFF707FC386114
:1013C4000EE0FFF703FC02463B69D31A022B07D950
:1013D400244B1B6803F00203002B01D00323CFE34B
:1013E400204B1B6803F00203002BEAD100E000BF8E
:1013F4007B681B6803F00103002B7ED0BB69082BBC
:1014040005D0BB690C2B0ED17B69032B0BD1154B7B
:101414001B6803F40033002B6ED07B685B68002BE1
:101424006AD10123ACE37B685B68B3F5803F06D1E6
:101434000C4B1B680B4A43F48033136024E07B6835
:101444005B68B3F5A02F13D1064B1B68054A43F420
:1014540080231360034B1B68024A43F480331360F8
:1014640012E000BF00100240000000200400002031
:101474008B4B1B688A4A23F480331360884B1B68A8
:10148400874A23F4802313607B685B68002B19D0A0
:10149400FFF79CFB38610EE0FFF798FB02463B69BF
:1014A400D31A642B07D97E4B1B6803F40033002B3B
:1014B40001D1032364E37A4B1B6803F40033002B4C
:1014C400EAD01AE0FFF782FB38610EE0FFF77EFBFB
:1014D40002463B69D31A642B07D9714B1B6803F48A
:1014E4000033002B01D003234AE36D4B1B6803F444
:1014F4000033002BEAD100E000BF7B681B6803F0D7
:101504000203002B6CD0BB69042B05D0BB690C2BE8
:1015140019D17B69022B16D1614B1B6803F48063DC
:10152400002B05D07B68DB68002B01D1012327E366
:101534005B4B5B6823F0FE427B681B691B065849C2
:1015440013434B604CE07B68DB68002B29D0544B81
:101554001B68534A43F480731360FFF737FB386109
:101564000EE0FFF733FB02463B69D31A022B07D97F
:101574004B4B1B6803F48063002B01D10323FFE270
:10158400474B1B6803F48063002BEAD0444B5B6831
:1015940023F0FE427B681B691B06414913434B60E1
:1015A4001EE03F4B1B683E4A23F480731360FFF731
:1015B4000DFB38610EE0FFF709FB02463B69D31AC5
:1015C400022B07D9364B1B6803F48063002B01D030
:1015D4000323D5E2324B1B6803F48063002BEAD16A
:1015E4007B681B6803F00803002B62D07B685B698F
:1015F400002B38D07B689B69002B08D1284BD3F88B
:101604009430274A23F01003C2F8943007E0244BA7
:10161400D3F89430224A43F01003C2F89430204B9C
:10162400D3F894301E4A43F00103C2F89430FFF714
:10163400CDFA38610FE0FFF7C9FA02463B69D31AC5
:10164400072B08D9164BD3F8943003F00203002B70
:1016540001D1032394E2124BD3F8943003F0020334
:10166400002BE8D025E00E4BD3F894300C4A23F03D
:101674000103C2F89430FFF7A9FA386112E0FFF7CA
:10168400A5FA02463B69D31A072B0BD9044BD3F8AE
:10169400943003F00203002B04D0032370E200BF54
:1016A40000100240A84BD3F8943003F00203002B3F
:1016B400E5D17B681B6803F00403002B00F02D8147
:1016C4000023FB77A04B9B6D03F08053002B0DD1BF
:1016D4009D4B9B6D9C4A43F0805393659A4B9B6D45
:1016E40003F08053BB60BB680123FB77974B1B68F7
:1016F40003F48073002B1ED1944B1B68934A43F46C
:1017040080731360FFF762FA38610EE0FFF75EFA48
:1017140002463B69D31A022B07D98C4B1B6803F48E
:101724008073002B01D103232AE2884B1B6803F446
:101734008073002BEAD07B689B6803F00103002BC5
:101744001FD07B689B6803F00403002B10D07E4BF2
:10175400D3F890307C4A43F00403C2F890307A4BBB
:10176400D3F89030784A43F00103C2F8903018E07F
:10177400754BD3F89030744A43F00103C2F89030AB
:101784000FE0714BD3F890306F4A23F00103C2F895
:1017940090306D4BD3F890306B4A23F00403C2F8B9
:1017A40090307B689B68002B68D0FFF70FFA386194
:1017B40011E0FFF70BFA02463B69D31A41F2883273
:1017C400934208D9604BD3F8903003F00203002B06
:1017D40001D10323D4E15C4BD3F8903003F002032E
:1017E400002BE6D07B689B6803F08003002B22D09B
:1017F400554BD3F89030544A43F08003C2F89030EC
:1018040011E0FFF7E3F902463B69D31A41F288324B
:10181400934208D94C4BD3F8903003F40063002B67
:1018240001D10323ACE1484BD3F8903003F40063B7
:10183400002BE6D068E0444BD3F89030424A23F0C2
:101844008003C2F8903011E0FFF7C0F902463B690B
:10185400D31A41F28832934208D93B4BD3F89030E3
:1018640003F40063002B01D0032389E1364BD3F842
:10187400903003F40063002BE6D145E0FFF7A6F9AE
:10188400386111E0FFF7A2F902463B69D31A41F22D
:101894008832934208D92C4BD3F8903003F00203DA
:1018A400002B01D003236BE1274BD3F8903003F0D6
:1018B4000203002BE6D1244BD3F8903003F08003CD
:1018C400002B21D0204BD3F890301F4A23F0800303
:1018D400C2F8903011E0FFF779F902463B69D31A58
:1018E40041F28832934208D9174BD3F8903003F46D
:1018F4000063002B01D0032342E1134BD3F8903053
:1019040003F40063002BE6D1FB7F012B05D10E4BC2
:101914009B6D0D4A23F0805393657B681B6803F02D
:101924002003002B4FD07B689B6A002B28D0064BEA
:10193400D3F89830044A43F00103C2F89830FFF713
:1019440045F9386114E000BF001002400070004007
:10195400FFF73CF902463B69D31A022B08D98A4B9C
:10196400D3F8983003F00203002B01D1032307E1DD
:10197400854BD3F8983003F00203002BE8D022E023
:10198400814BD3F89830804A23F00103C2F8983091
:10199400FFF71CF938610FE0FFF718F902463B69BD
:1019A400D31A022B08D9784BD3F8983003F00203EA
:1019B400002B01D00323E3E0734BD3F8983003F0FA
:1019C4000203002BE8D17B68DB6A002B00F0D78090
:1019D4006D4B9B6803F00C030C2B00F091807B682B
:1019E400DB6A022B66D1684B1B68674A23F080735D
:1019F4001360FFF7EBF838610EE0FFF7E7F80246F3
:101A04003B69D31A022B07D95F4B1B6803F00073A1
:101A1400002B01D00323B3E05B4B1B6803F000737E
:101A2400002BEAD1584BDA68584B13407A68116B93
:101A34007A68526B013A120111437A68926B12026E
:101A440011437A68126C5208013A520511437A68BC
:101A5400526C5208013A520611437A68D26BD2068C
:101A64000A4349491343CB60474B1B68464A43F03A
:101A740080731360444BDB68434A43F08073D36044
:101A8400FFF7A4F838610EE0FFF7A0F802463B69BF
:101A9400D31A022B07D93C4B1B6803F00073002BAD
:101AA40001D103236CE0384B1B6803F00073002B57
:101AB400EAD064E0344B1B68334A23F0807313602C
:101AC400FFF784F838610EE0FFF780F802463B69BF
:101AD400D31A022B07D92C4B1B6803F00073002B7D
:101AE40001D003234CE0284B1B6803F00073002B48
:101AF400EAD1254BDA682449254B1340CB603EE0FC
:101B04007B68DB6A012B01D1012339E01E4BDB68C2
:101B14007B617B6903F003027B681B6B9A422CD1C7
:101B24007B6903F0F0027B685B6B013B1B019A420B
:101B340023D17B6903F4FE427B689B6B1B029A42B0
:101B44001BD17B6903F078427B68DB6BDB069A422E
:101B540013D17B6903F4C0027B681B6C5B08013BF7
:101B64005B059A4209D17B6903F0C0627B685B6CB8
:101B74005B08013B5B069A4201D0012300E000238D
:101B840018462037BD4680BD001002400C809F01DE
:101B9400FCFFEEFE80B586B000AF786039600023AC
:101BA4007B617B68002B01D101231CE1904B1B68F6
:101BB40003F00F033A689A4210D98D4B1B6823F047
:101BC4000F028B493B6813430B60894B1B6803F07E
:101BD4000F033A689A4201D0012304E17B681B6831
:101BE40003F00203002B10D07B689A68814B9B683A
:101BF40003F0F0039A4208D97E4B9B6823F0F0026D
:101C04007B689B687B4913438B607B681B6803F08C
:101C14000103002B00F085807B685B68032B1FD1D8
:101C2400744B1B6803F00073002B01D10123DAE02D
:101C340000F026FA38613B696F4A934247D96D4BED
:101C44009B6803F0F003002B41D16A4B9B6823F09F
:101C5400F003684A43F08003936080237B6136E09D
:101C64007B685B68022B07D1624B1B6803F400336B
:101C7400002B15D10123B6E07B685B68002B07D1EC
:101C84005C4B1B6803F00203002B09D10123AAE07B
:101C9400584B1B6803F48063002B01D10123A2E09D
:101CA40000F0B0F838613B69534A93420FD9514B65
:101CB4009B6803F0F003002B09D14E4B9B6823F083
:101CC400F0034C4A43F08003936080237B61494BCB
:101CD4009B6823F003027B685B68464913438B606F
:101CE400FEF774FFF86013E0FEF770FF0246FB682E
:101CF400D31A41F2883293420AD93E4B9B6803F0CF
:101D04000C027B685B689B009A4201D003236AE063
:101D1400384B9B6803F00C027B685B689B009A421B
:101D2400E2D17B69802B05D1324B9B68314A23F089
:101D3400F00393607B681B6803F00203002B10D050
:101D44007B689A682B4B9B6803F0F0039A4208D295
:101D5400284B9B6823F0F0027B689B68254913435A
:101D64008B60234B1B6803F00F033A689A4210D22E
:101D74001F4B1B6823F00F021D493B6813430B6084
:101D84001B4B1B6803F00F033A689A4201D00123EE
:101D940029E07B681B6803F00403002B08D0154B73
:101DA4009B6823F4E0627B68DB68124913438B6011
:101DB4007B681B6803F00803002B09D00D4B9B685C
:101DC40023F460527B681B69DB000A4913438B6070
:101DD40000F0B6F80346094A1360094B1B6818461D
:101DE400FEF7A4FE034618461837BD4680BD00BF63
:101DF400002002400010024000B4C404000000208F
:101E04000400002080B489B000AF0023FB610023EC
:101E1400BB61474B9B6803F00C033B61444BDB689D
:101E240003F00303FB603B69002B05D03B690C2BDB
:101E340021D1FB68012B1ED13D4B1B6803F0080325
:101E4400002B07D13A4BD3F894301B0A03F00F034D
:101E5400FB6105E0364B1B681B0903F00F03FB61B4
:101E6400344AFB6952F82330FB613B69002B0DD1E6
:101E7400FB69BB610AE03B69042B02D12E4BBB61B9
:101E840004E03B69082B01D12C4BBB613B690C2B53
:101E940046D1274BDB6803F00303BB60244BDB68AC
:101EA4001B0903F00F0301337B60BB68022B03D0D3
:101EB400BB68032B0DD019E01F4A7B68B2FBF3F318
:101EC4001B4AD268120A02F07F0202FB03F37B6111
:101ED40019E01A4A7B68B2FBF3F3154AD268120A76
:101EE40002F07F0202FB03F37B610CE0FA697B687A
:101EF400B2FBF3F30E4AD268120A02F07F0202FB2D
:101F040003F37B6100BF0A4BDB685B0E03F0030342
:101F140001335B003B607A693B68B2FBF3F3BB615E
:101F2400BB6918462437BD465DF8047B704700BF83
:101F340000100240C83B02080024F40000127A009A
:101F440080B500AFFFF75EFF0246054B9B681B0997
:101F540003F00F030349CB5C22FA03F3184680BD58
:101F640000100240B03B020880B500AFFFF7E8FF65
:101F74000246054B9B681B0A03F007030349CB5C2D
:101F840022FA03F3184680BD00100240C03B020849
:101F940080B500AFFFF7D4FF0246054B9B68DB0A10
:101FA40003F007030349CB5C22FA03F3184680BD10
:101FB40000100240C03B020880B586B000AF7860D4
:101FC40000237B612C4B9B6D03F08053002B03D0CB
:101FD400FFF76CF8386114E0274B9B6D264A43F0F9
:101FE40080539365244B9B6D03F08053FB60FB6827
:101FF400FFF75CF83861204B9B6D1F4A23F0805338
:1020040093653B69002B03D03B69B3F5007F0BD18B
:102014007B68802B19D97B68A02B02D902237B61B2
:1020240013E001237B6110E07B68802B02D903233A
:102034007B610AE07B68802B02D102237B6104E090
:102044007B68702B01D101237B610C4B1B6823F04F
:102054000F020A497B6913430B60084B1B6803F0AA
:102064000F037A699A4201D0012300E00023184645
:102074001837BD4680BD00BF00100240002002405A
:1020840080B487B000AF314BDB6803F00303FB601F
:102094002E4BDB681B0903F00F030133BB60FB68A5
:1020A400032B15D0FB68032B39D8FB68012B1CD0FC
:1020B400FB68022B33D1264ABB68B2FBF3F3234AF5
:1020C400D268120A02F07F0202FB03F33B6129E0AB
:1020D400204ABB68B2FBF3F31C4AD268120A02F02E
:1020E4007F0202FB03F33B611CE0184B1B6803F007
:1020F4000803002B07D1154BD3F894301B0A03F0C7
:102104000F037B6105E0114B1B681B0903F00F03F0
:102114007B61114A7B6952F823303B6102E0002362
:102124003B6100BF094BDB685B0E03F00303013323
:102134005B007B603A697B68B2FBF3F33B603B680E
:1021440018461C37BD465DF8047B704700100240FA
:102154000024F40000127A00C83B020880B588B05D
:1021640000AF78600023FB770023BB777B681B6894
:1021740003F40063002B40D07B68DB6E802B2AD0F5
:10218400802B25D8602B26D0602B21D8402B06D05D
:10219400402B1DD8002B09D0202B10D018E08F4BDA
:1021A400DB688E4A43F48033D36015E07B680433E4
:1021B4000021184600F056FB0346FB770CE07B68D1
:1021C40020330021184600F033FC0346FB7703E07C
:1021D4000123FB7700E000BFFB7F002B0BD17F4B7B
:1021E400D3F89C3023F0E0027B68DB6E7B49134319
:1021F400C1F89C3001E0FB7FBB777B681B6803F46C
:102204008053002B47D07B681B6FB3F5806F30D0B1
:10221400B3F5806F2AD8B3F5407F2AD0B3F5407F59
:1022240024D8B3F5007F08D0B3F5007F1ED8002B67
:102234000AD0B3F5807F10D018E0684BDB68674A9A
:1022440043F48033D36015E07B68043300211846DF
:1022540000F008FB0346FB770CE07B682033002189
:10226400184600F0E5FB0346FB7703E00123FB7708
:1022740000E000BFFB7F002B0BD1584BD3F89C3000
:1022840023F4E0627B681B6F54491343C1F89C300C
:1022940001E0FB7FBB777B681B6803F40033002BF2
:1022A40000F0AB800023FB754C4B9B6D03F0805317
:1022B400002B0DD1494B9B6D484A43F080539365E5
:1022C400464B9B6D03F08053FB60FB680123FB7559
:1022D400434B1B68424A43F480731360FEF776FC59
:1022E40038610FE0FEF772FC02463B69D31A022BF9
:1022F40008D93B4B1B6803F48073002B09D10323DB
:10230400FB7706E0364B1B6803F48073002BE9D09F
:1023140000E000BFFB7F002B64D1304BD3F890303A
:1023240003F44073BB61BB69002B1FD07B68D3F8F7
:102334009030BA699A4219D0284BD3F8903023F4DC
:102344004073BB61254BD3F89030244A43F4803367
:10235400C2F89030214BD3F89030204A23F48033D4
:10236400C2F890301D4ABB69C2F89030BB6903F0D3
:102374000103002B1FD0FEF729FC386112E0FEF7A1
:1023840025FC02463B69D31A41F28832934209D9AB
:10239400124BD3F8903003F00203002B0AD103232D
:1023A400FB7707E00D4BD3F8903003F00203002BCA
:1023B400E5D000E000BFFB7F002B0CD1074BD3F826
:1023C400903023F440727B68D3F890300349134370
:1023D400C1F8903008E0FB7FBB7705E000100240B5
:1023E40000700040FB7FBB77FB7D012B05D19C4B2C
:1023F4009B6D9B4A23F0805393657B681B6803F0B5
:102404000103002B0AD0964BD3F8883023F0030243
:102414007B685B6B92491343C1F888307B681B6807
:1024240003F00203002B0AD08D4BD3F8883023F03D
:102434000C027B689B6B8A491343C1F888307B6824
:102444001B6803F00403002B0AD0854BD3F88830B3
:1024540023F030027B68DB6B81491343C1F8883079
:102464007B681B6803F00803002B0AD07C4BD3F86D
:10247400883023F0C0027B681B6C79491343C1F890
:1024840088307B681B6803F01003002B0AD0744B60
:10249400D3F8883023F440727B685B6C7049134333
:1024A400C1F888307B681B6803F02003002B0AD036
:1024B4006B4BD3F8883023F440627B689B6C68498B
:1024C4001343C1F888307B681B6803F40073002B46
:1024D4000AD0634BD3F8883023F440227B68DB6D49
:1024E4005F491343C1F888307B681B6803F4806339
:1024F400002B0AD05A4BD3F8883023F440127B685F
:102504001B6E57491343C1F888307B681B6803F47A
:102514008003002B0AD0524BD3F8883023F44002B6
:102524007B685B6E4E491343C1F888307B681B6837
:1025340003F00073002B31D07B689B6EB3F1007FF6
:102544000ED0B3F1007F14D8002B15D0B3F1807FE7
:102554000FD1434BDB68424A43F48013D3600CE051
:102564007B6804330021184600F07CF90346FB77AE
:1025740003E00123FB7700E000BFFB7F002B0BD1BE
:10258400374BD3F8883023F040727B689B6E344914
:102594001343C1F8883001E0FB7FBB777B681B687D
:1025A40003F04003002B0AD02D4BD3F8883023F4DA
:1025B40040527B68DB6C2A491343C1F888307B683E
:1025C4001B6803F08003002B0AD0254BD3F8883016
:1025D40023F440427B681B6D21491343C1F88830C2
:1025E4007B681B6803F48073002B0AD01C4BD3F860
:1025F400883023F440327B685B6D19491343C1F87A
:1026040088307B681B6803F48013002B0AD0144BBA
:10261400D3F89C3023F003027B689B6D104913436D
:10262400C1F89C307B681B6803F40053002B2BD04B
:102634000B4BD3F8883023F040627B685B6F08490A
:102644001343C1F888307B685B6FB3F1006F09D125
:10265400034BDB68024A43F48013D36014E000BFE9
:10266400001002407B685B6FB3F1806F0CD17B6814
:1026740004330121184600F0F5F80346FB77FB7F8D
:10268400002B01D0FB7FBB777B681B6803F400231E
:10269400002B4AD07B689B6FB3F5804F08D1704BF9
:1026A400D3F89C306E4A43F48043C2F89C3012E065
:1026B4006B4BD3F8883023F040627B689B6F68498A
:1026C4001343C1F88830664BD3F89C30644A23F432
:1026D4008043C2F89C307B689B6FB3F1806F0DD14F
:1026E4007B6804330121184600F0BCF80346FB77ED
:1026F400FB7F002B19D0FB7FBB7716E07B689B6FB9
:10270400B3F1006F06D1564BDB68554A43F480138E
:10271400D3600AE07B689B6FB3F5804F05D1504BC3
:10272400DB684F4A43F48033D3607B681B6803F44F
:102734008023002B28D04A4BD3F8883023F0406202
:102744007B68DB6F46491343C1F888307B68DB6FD5
:10275400B3F1006F06D1424BDB68414A43F4801366
:10276400D36011E07B68DB6FB3F1806F0CD17B68C1
:1027740004330121184600F075F80346FB77FB7F0C
:10278400002B01D0FB7FBB777B681B6803F480437D
:10279400002B1ED0324BD3F8883023F040527B6894
:1027A400D3F880302E491343C1F888307B68D3F8BE
:1027B4008030B3F1805F0CD17B680433022118466A
:1027C40000F050F80346FB77FB7F002B01D0FB7F22
:1027D400BB777B681B6803F48033002B0BD0204B42
:1027E400D3F89C3023F004027B68D3F884301C496E
:1027F4001343C1F89C307B681B6803F40013002B5F
:102804000BD0174BD3F89C3023F018027B68D3F815
:10281400883013491343C1F89C307B681B6803F06C
:102824008073002B17D00E4BD3F89C3023F4401246
:102834007B68D3F88C300A491343C1F89C307B6819
:10284400D3F88C30B3F5001F05D1054BDB68044A7F
:1028540043F48013D360BB7F18462037BD4680BD48
:102864000010024080B584B000AF78603960002366
:10287400FB737B681B68032B18D0032B1FD8012B19
:1028840002D0022B09D01AE0654B1B6803F0020347
:10289400002B17D10123FB7314E0614B1B6803F475
:1028A4008063002B10D10123FB730DE05C4B1B688C
:1028B40003F4C023002B09D10123FB7306E0012399
:1028C400FB7304E000BF02E000BF00E000BFFB7B3D
:1028D400002B40F09F80524B1B68514A23F08063C9
:1028E4001360FEF773F9B8600FE0FEF76FF9024664
:1028F400BB68D31A022B08D9494B1B6803F0006349
:10290400002B09D00323FB7306E0454B1B6803F03F
:102914000063002BE9D100E000BFFB7B002B79D1E1
:102924003B68002B16D13E4B1A693E4B13407A6824
:10293400926811027A68D268D20611437A685268A2
:10294400013A120111437A6812680A433449134365
:102954000B6133E03B68012B18D1314B1A69324BC0
:1029640013407A68926811027A6812695208013A2F
:10297400520511437A685268013A120111437A6888
:1029840012680A43264913430B6117E0244B1A6962
:10299400264B13407A68926811027A685269520889
:1029A400013A520611437A685268013A12011143FE
:1029B4007A6812680A431A4913430B61184B1B685F
:1029C400174A43F080631360FEF700F9B8600FE024
:1029D400FEF7FCF80246BB68D31A022B08D9104B49
:1029E4001B6803F00063002B09D10323FB7306E08B
:1029F4000B4B1B6803F00063002BE9D000E000BF21
:102A0400FB7B002B06D1064B1A697B689B69044942
:102A140013430B61FB7B18461037BD4680BD00BFD6
:102A2400001002400C80FF070C809FFF0C80FFF910
:102A340080B584B000AF786039600023FB737B6895
:102A44001B68032B18D0032B1FD8012B02D0022B99
:102A540009D01AE04A4B1B6803F00203002B17D17C
:102A64000123FB7314E0464B1B6803F48063002BC3
:102A740010D10123FB730DE0414B1B6803F4C02309
:102A8400002B09D10123FB7306E00123FB7304E04F
:102A940000BF02E000BF00E000BFFB7B002B69D158
:102AA400374B1B68364A23F080531360FEF78EF8C9
:102AB400B8600FE0FEF78AF80246BB68D31A022B0F
:102AC40008D92F4B1B6803F00053002B09D00323B4
:102AD400FB7306E02A4B1B6803F00053002BE9D17B
:102AE40000E000BFFB7B002B44D13B68002B15D1D9
:102AF400234B5A69234B13407A68926811027A680F
:102B0400D268D20611437A685268013A120111431D
:102B14007A6812680A431A4913434B61184B1B68BD
:102B2400174A43F080531360FEF750F8B8600FE083
:102B3400FEF74CF80246BB68D31A022B08D9104B97
:102B44001B6803F00053002B09D10323FB7306E039
:102B54000B4B1B6803F00053002BE9D000E000BFCF
:102B6400FB7B002B06D1064B5A697B681B69044921
:102B740013434B61FB7B18461037BD4680BD00BF35
:102B8400001002400C80FF0780B582B000AF78606F
:102B94007B68002B01D1012342E07B68D3F88830A5
:102BA400002B06D17B68002283F884207868FDF727
:102BB4002FFE7B682422C3F888207B681B681A6870
:102BC4007B681B6822F001021A607B689B6A002BF9
:102BD40002D0786800F07EFC786800F07BF9034648
:102BE400012B01D101231BE07B681B685A687B68B9
:102BF4001B6822F490425A607B681B689A687B6861
:102C04001B6822F02A029A607B681B681A687B683A
:102C14001B6842F001021A60786800F0FDFC03466C
:102C240018460837BD4680BD80B58AB002AFF8604B
:102C3400B9603B601346FB80FB68D3F88830202BD7
:102C44007BD1BB68002B02D0FB88002B01D1012370
:102C540074E0FB680022C3F89020FB682122C3F8CB
:102C64008820FDF7B3FF7861FB68FA88A3F8542045
:102C7400FB68FA88A3F85620FB689B68B3F5805F6D
:102C840008D1FB681B69002B04D10023FB61BB68DE
:102C9400BB6103E0BB68FB610023BB6130E03B68C0
:102CA40000937B6900228021F86800F05FFD0346F1
:102CB400002B05D0FB682022C3F8882003233DE0C5
:102CC400FB69002B0BD1BB691B881A46FB681B6888
:102CD400C2F308029A62BB690233BB6107E0FB6975
:102CE4001A78FB681B689A62FB690133FB61FB6815
:102CF400B3F856309BB2013B9AB2FB68A3F8562056
:102D0400FB68B3F856309BB2002BC8D13B680093E4
:102D14007B6900224021F86800F028FD0346002B5F
:102D240005D0FB682022C3F88820032306E0FB6853
:102D34002022C3F88820002300E00223184620370D
:102D4400BD4680BD80B58AB002AFF860B9603B6013
:102D54001346FB80FB68D3F88C30202B40F0B58001
:102D6400BB68002B02D0FB88002B01D10123ADE00E
:102D7400FB680022C3F89020FB682222C3F88C2051
:102D8400FB680022DA66FDF721FF7861FB68FA88A8
:102D9400A3F85C20FB68FA88A3F85E20FB689B68B4
:102DA400B3F5805F0ED1FB681B69002B05D1FB686E
:102DB40040F2FF12A3F860202DE0FB68FF22A3F885
:102DC400602028E0FB689B68002B0DD1FB681B6921
:102DD400002B04D1FB68FF22A3F860201BE0FB68F2
:102DE4007F22A3F8602016E0FB689B68B3F1805F44
:102DF4000DD1FB681B69002B04D1FB687F22A3F86B
:102E0400602008E0FB683F22A3F8602003E0FB6831
:102E14000022A3F86020FB68B3F860307B82FB6873
:102E24009B68B3F5805F08D1FB681B69002B04D154
:102E34000023FB61BB68BB6103E0BB68FB6100234B
:102E4400BB6136E03B6800937B6900222021F8686F
:102E540000F08CFC0346002B05D0FB682022C3F84D
:102E64008C20032332E0FB69002B0CD1FB681B6828
:102E74005B6A9AB27B8A13409AB2BB691A80BB69B7
:102E84000233BB610CE0FB681B685B6ADAB27B8AC5
:102E9400DBB21340DAB2FB691A70FB690133FB61E0
:102EA400FB68B3F85E309BB2013B9AB2FB68A3F8AF
:102EB4005E20FB68B3F85E309BB2002BC2D1FB6886
:102EC4002022C3F88C20002300E002231846203778
:102ED400BD4680BD2DE9B04F8CB000AF78610023B2
:102EE40087F82A307B699A687B691B691A437B6976
:102EF4005B691A437B69DB691343FB627B691B686B
:102F04001A68AA4B13407A691268F96A0B43136072
:102F14007B691B685B6823F440517B69DA687B69D1
:102F24001B680A435A607B699B69FB627B691B6867
:102F34009F4A934204D07B691B6AFA6A1343FB627B
:102F44007B691B689B6823F06E4323F430637A69C2
:102F54001268F96A0B4393607B691B68DB6A23F090
:102F64000F017B695A6A7B691B680A43DA627B69D1
:102F74001B68904A934225D18F4BD3F8883003F0D5
:102F84000303032B1AD801A252F823F0A12F02083D
:102F9400B12F0208A92F0208B92F0208012387F8CC
:102FA4002B3016E1022387F82B3012E1042387F833
:102FB4002B300EE1082387F82B300AE1102387F821
:102FC4002B3006E17B691B687C4A934238D17A4BEB
:102FD400D3F8883003F00C030C2B2DD801A252F83F
:102FE40023F000BF1D3002083D3002083D300208C6
:102FF4003D3002082D3002083D3002083D30020801
:103004003D300208253002083D3002083D300208F8
:103014003D30020835300208002387F82B30D8E011
:10302400022387F82B30D4E0042387F82B30D0E038
:10303400082387F82B30CCE0102387F82B30C8E026
:103044007B691B685E4A934225D15B4BD3F8883079
:1030540003F03003302B16D0302B18D8202B0AD095
:10306400202B14D8002B02D0102B08D00FE0002303
:1030740087F82B30ADE0022387F82B30A9E0042336
:1030840087F82B30A5E0082387F82B30A1E0102324
:1030940087F82B309DE07B691B684A4A934225D10F
:1030A400454BD3F8883003F0C003C02B16D0C02B97
:1030B40018D8802B0AD0802B14D8002B02D0402B98
:1030C40008D00FE0002387F82B3082E0022387F832
:1030D4002B307EE0042387F82B307AE0082387F82E
:1030E4002B3076E0102387F82B3072E07B691B6865
:1030F400354A93422AD1304BD3F8883003F44073D5
:10310400B3F5407F1AD0B3F5407F1BD8B3F5007FE9
:103114000CD0B3F5007F15D8002B03D0B3F5807F16
:1031240008D00FE0002387F82B3052E0022387F801
:103134002B304EE0042387F82B304AE0082387F82D
:103144002B3046E0102387F82B3042E07B691B6864
:10315400174A93423AD1184BD3F8883003F44063AA
:10316400B3F5406F1AD0B3F5406F1BD8B3F5006FB9
:103174000CD0B3F5006F15D8002B03D0B3F5806FD6
:1031840008D00FE0002387F82B3022E0022387F8D1
:103194002B301EE0042387F82B301AE0082387F82D
:1031A4002B3016E0102387F82B3012E0F369FFCFA1
:1031B40000800040003801400010024000440040FC
:1031C40000480040004C004000500040102387F8A5
:1031D4002B307B691B68B04A934240F09B8097F880
:1031E4002B30082B27D801A252F823F015320208FD
:1031F4001D320208253202083B3202082B32020833
:103204003B3202083B3202083B32020833320208E6
:10321400FEF7AAFE786214E0FEF7BAFE786210E0C8
:103224009E4B7B620DE0FEF7EDFD786209E04FF402
:1032340000437B6205E000237B62012387F82A3088
:1032440000BF7B6A002B00F030817B695B6A944A83
:1032540032F813301A467B6AB3FBF2F3BB617B6925
:103264005A6813465B001344BA699A4205D37B69D2
:103274005B681B03BA699A4203D9012387F82A3091
:1032840013E17B6A0022BB60FA607B695B6A844A53
:1032940032F813309BB200223B607A60D7E90023F6
:1032A400D7E90201FCF7C4FF02460B461046194653
:1032B4004FF000024FF000030B0243EA10630202D6
:1032C40079694968490800200C46054612EB040850
:1032D40043EB05097B695B6800229A469346524694
:1032E4005B4640464946FCF7A3FF02460B4613469D
:1032F4003B623B6AB3F5407F08D33B6AB3F5801F5A
:1033040004D27B691B683A6ADA60CEE0012387F84D
:103314002A30CAE07B69DB69B3F5004F66D197F8C0
:103324002B30082B27D801A252F823F0553302087A
:103334005D330208653302087B3302086B330208ED
:103344007B3302087B3302087B33020873330208A1
:10335400FEF70AFE786214E0FEF71AFE786210E0C7
:103364004E4B7B620DE0FEF74DFD786209E04FF4B1
:1033740000437B6205E000237B62012387F82A3047
:1033840000BF7B6A002B00F090807B695B6A444A33
:1033940032F813301A467B6AB3FBF2F35A007B69A6
:1033A4005B685B081A447B695B68B2FBF3F33B62BE
:1033B4003B6A0F2B16D93B6AB3F5803F12D23B6AA6
:1033C4009BB223F00F03FB833B6A5B089BB203F0C1
:1033D40007039AB2FB8B1343FB837B691B68FA8B4D
:1033E400DA6062E0012387F82A305EE097F82B3038
:1033F400082B28D801A252F823F000BF2534020874
:103404002D340208353402084B3402083B340208D8
:103414004B3402084B3402084B340208433402088C
:10342400FEF7A2FD786214E0FEF7B2FD786210E0C8
:103434001A4B7B620DE0FEF7E5FC786209E04FF47D
:1034440000437B6205E000237B62012387F82A3076
:1034540000BF7B6A002B28D07B695B6A104A32F874
:1034640013301A467B6AB3FBF2F27B695B685B0834
:103474001A447B695B68B2FBF3F33B623B6A0F2B34
:1034840010D93B6AB3F5803F0CD23B6A9AB27B6990
:103494001B68DA6009E000BF008000400024F400EB
:1034A400083C0208012387F82A307B690122A3F82B
:1034B4006A207B690122A3F868207B6900225A678D
:1034C4007B6900229A6797F82A3018463037BD4640
:1034D400BDE8B08F80B483B000AF78607B689B6A2E
:1034E40003F00803002B0AD07B681B685B6823F495
:1034F40000417B689A6B7B681B680A435A607B684F
:103504009B6A03F00103002B0AD07B681B685B688D
:1035140023F400317B68DA6A7B681B680A435A60CB
:103524007B689B6A03F00203002B0AD07B681B684C
:103534005B6823F480317B681A6B7B681B680A43E1
:103544005A607B689B6A03F00403002B0AD07B68F3
:103554001B685B6823F480217B685A6B7B681B685B
:103564000A435A607B689B6A03F01003002B0AD05D
:103574007B681B689B6823F480517B68DA6B7B68EB
:103584001B680A439A607B689B6A03F02003002B44
:103594000AD07B681B689B6823F400517B681A6C13
:1035A4007B681B680A439A607B689B6A03F040034C
:1035B400002B1AD07B681B685B6823F480117B683E
:1035C4005A6C7B681B680A435A607B685B6CB3F572
:1035D400801F0AD17B681B685B6823F4C0017B6889
:1035E4009A6C7B681B680A435A607B689B6A03F089
:1035F4008003002B0AD07B681B685B6823F40021DE
:103604007B68DA6C7B681B680A435A6000BF0C371E
:10361400BD465DF8047B704780B598B002AF786012
:103624007B680022C3F89020FDF7D0FA78657B68A8
:103634001B681B6803F00803082B2FD16FF07E432F
:1036440000937B6D00224FF40011786800F08EF82F
:103654000346002B22D07B681B68BB63BB6B53E81B
:10366400003F7B637B6B23F080033B657B681B68B7
:103674001A463B6D7B643A64396C7A6C41E80023EA
:10368400FB63FB6B002BE6D17B682022C3F8882008
:103694007B68002283F88420032363E07B681B6833
:1036A4001B6803F00403042B49D16FF07E4300939D
:1036B4007B6D00224FF48001786800F057F80346D0
:1036C400002B3CD07B681B687B627B6A53E8003F1D
:1036D4003B623B6A23F49073FB647B681B681A4665
:1036E400FB6C3B63FA62F96A3A6B41E80023BB6204
:1036F400BB6A002BE6D17B681B6808333B613B69DE
:1037040053E8003FFB60FB6823F00103BB647B6864
:103714001B680833BA6CFA61BB61B969FA6941E89C
:1037240000237B617B69002BE5D17B682022C3F8F1
:103734008C207B68002283F88420032312E07B68BA
:103744002022C3F888207B682022C3F88C207B6861
:103754000022DA667B6800221A677B68002283F8FD
:103764008420002318465837BD4680BD80B584B0F8
:1037740000AFF860B9603B601346FB714FE0BB6972
:10378400B3F1FF3F4BD0FDF721FA02463B68D31A51
:10379400BA699A4202D3BB69002B01D103234EE0DC
:1037A400FB681B681B6803F00403002B37D0BB685D
:1037B400802B34D0BB68402B31D0FB681B68DB699D
:1037C40003F00803082B10D1FB681B6808221A6257
:1037D400F86800F038F8FB680822C3F89020FB680A
:1037E400002283F88420012329E0FB681B68DB693D
:1037F40003F40063B3F5006F11D1FB681B684FF449
:1038040000621A62F86800F01EF8FB682022C3F810
:103814009020FB68002283F8842003230FE0FB68D8
:103824001B68DA69BB681340BA689A420CBF01236B
:103834000023DBB21A46FB799A42A0D00023184633
:103844001037BD4680BD80B495B000AF78607B680A
:103854001B687B637B6B53E8003F3B633B6B23F448
:103864009073FB647B681B681A46FB6C3B64FA63C9
:10387400F96B3A6C41E80023BB63BB6B002BE6D1C8
:103884007B681B6808333B623B6A53E8003FFB617B
:10389400FB6923F0805323F00103BB647B681B683E
:1038A4000833BA6CFA62BB62B96AFA6A41E8002367
:1038B4007B627B6A002BE3D17B68DB6E012B18D122
:1038C4007B681B68FB60FB6853E8003FBB60BB6818
:1038D40023F010037B647B681B681A467B6CBB6116
:1038E4007A617969BA6941E800233B613B69002B3D
:1038F400E6D17B682022C3F88C207B680022DA663C
:103904007B6800225A6700BF5437BD465DF8047BCC
:10391400704780B485B000AF78607B6893F88430DA
:10392400012B01D1022327E07B68012283F8842044
:103934007B682422C3F888207B681B681B68FB60B3
:103944007B681B681A687B681B6822F001021A6096
:10395400FB6823F00053FB607B6800225A667B6897
:103964001B68FA681A607B682022C3F888207B6889
:10397400002283F88420002318461437BD465DF8DE
:10398400047B704780B584B000AF786039607B6891
:1039940093F88430012B01D102232DE07B680122AE
:1039A40083F884207B682422C3F888207B681B6802
:1039B4001B68FB607B681B681A687B681B6822F0C5
:1039C40001021A607B681B689B6823F060417B6876
:1039D4001B683A680A439A60786800F04FF87B687D
:1039E4001B68FA681A607B682022C3F888207B6809
:1039F400002283F88420002318461037BD4680BD7A
:103A040080B584B000AF786039607B6893F8843007
:103A1400012B01D102232DE07B68012283F884204D
:103A24007B682422C3F888207B681B681B68FB60C2
:103A34007B681B681A687B681B6822F001021A60A5
:103A44007B681B689B6823F060617B681B683A682D
:103A54000A439A60786800F011F87B681B68FA687A
:103A64001A607B682022C3F888207B68002283F8D0
:103A74008420002318461037BD4680BD80B485B02D
:103A840000AF78607B685B6E002B08D17B680122F5
:103A9400A3F86A207B680122A3F8682031E0082398
:103AA400FB730823BB737B681B689B685B0EDBB2EC
:103AB40003F007037B737B681B689B685B0FDBB2B7
:103AC40003F007033B73BB7B3A7B11498A5C02FB1F
:103AD40003F33A7B0F498A5C93FBF2F39AB27B6857
:103AE400A3F86A20FB7B7A7B09498A5C02FB03F317
:103AF4007A7B08498A5C93FBF2F39AB27B68A3F859
:103B0400682000BF1437BD465DF8047B704700BFD2
:103B1400203C0208283C020870B50D4D00260D4CCF
:103B2400641BA410A64209D10B4D00260B4C00F0D7
:103B34001FF8641BA410A64205D170BD55F8043BC0
:103B440001369847EEE755F8043B01369847F2E70B
:103B5400383C0208383C0208383C02083C3C020865
:103B640002440346934200D1704703F8011BF9E76E
:103B7400F8B500BFF8BC08BC9E467047F8B500BF56
:083B8400F8BC08BC9E46704726
:103B8C000A48656C6C6F204920616D2052756E6E11
:103B9C00696E672074686520417070206E6F7721A4
:103BAC0000000000000000000000000001020304FF
:103BBC00060708090000000001020304A0860100AA
:103BCC00400D0300801A060000350C0040420F0027
:103BDC0080841E0000093D0000127A000024F400CD
:103BEC0000366E010048E801006CDC0200000000A9
:103BFC0000000000000000000000000001000200B6
:103C0C000400060008000A000C0010002000400010
:103C1C0080000001010101030701000008040204F7
:043C2C000801010189
:083C300034C6FF7F0100000013
:043C38001902020863
:043C3C00F501020884
:0C3C400000093D00080000000100000029
:0400000508020AA93A
:00000001FF
